:020000040800F2
:10000000609D002029020008F31B00085F1700080C
:10001000F11B00081F040008112600080000000062
:100020000000000000000000000000006125000842
:1000300021040008000000009D1E00086325000840
:10004000430200084302000843020008430200087C
:10005000430200084302000843020008430200086C
:10006000430200084302000823040008430200087A
:10007000430200084302000843020008430200084C
:10008000430200084302000843020008430200083C
:10009000430200084302000843020008430200082C
:1000A000430200084302000843020008430200081C
:1000B000430200084302000843020008430200080C
:1000C00043020008430200084302000843020008FC
:1000D00043020008430200084302000843020008EC
:1000E00043020008430200084302000843020008DC
:1000F00043020008430200084302000843020008CC
:1001000043020008430200084302000843020008BB
:1001100043020008430200084302000843020008AB
:10012000430200084302000843020008430200089B
:10013000430200084302000843020008430200088B
:10014000430200084302000843020008430200087B
:10015000430200084302000843020008430200086B
:10016000430200084302000843020008430200085B
:100170004302000843020008430200080000000098
:10018000430200084302000800F002F800F03CF8C7
:100190000AA090E8000C82448344AAF10107DA45E2
:1001A00001D100F031F8AFF2090EBAE80F0013F0F8
:1001B000010F18BFFB1A43F0010318477C3A0000F7
:1001C0009C3A0000103A24BF78C878C1FAD8520788
:1001D00024BF30C830C144BF04680C6070470000C1
:1001E0000023002400250026103A28BF78C1FBD840
:1001F000520728BF30C148BF0B6070471FB502F0DF
:10020000AEFD1FBD10B510BD00F0D4F81146FFF7CC
:10021000F5FF02F0C1FA00F0F2F803B4FFF7F2FFC5
:1002200003BC00F0F5F80000094880470948004782
:10023000FEE7FEE7FEE7FEE7FEE7FEE7FEE7FEE796
:10024000FEE7FEE704480549054A064B70470000F3
:10025000012600088901000860970020609D0020A9
:10026000609900206099002053EA020C00F0698038
:100270002DE9F04B4FF00006002B1FBFB3FA83F5BA
:1002800003FA05F424FA05F65E4012BF1643B2FAEB
:1002900082F502FA05F4C5F120051EBF22FA05FC1D
:1002A00044EA0C04203556EA044C4FEA144418BFC3
:1002B000641C4FF000084FF00009904271EB030CF2
:1002C00039D3002919BFB1FA81F701FA07F6B0FA5C
:1002D00080F700FA07F6C7F120071EBF20FA07FCD7
:1002E00046EA0C062037B6FBF4FCA7EB0507103FE7
:1002F00007F01F0BCBF120060CFA0BFB2CFA06F6CD
:1003000044BFB3460026202FA4BF5E464FF0000B2B
:100310005BEA060C08BF4FF0010B19EB0B09ABFBB6
:10032000027C48EB0608C01B06FB02CC0BFB03CC8F
:1003300071EB0C01C1E70B46024641464846BDE859
:10034000F08B13B54FF000004FF00001AFF30080C9
:10035000BDE81C4070474FF0000200B513469446BC
:100360009646203922BFA0E80C50A0E80C50B1F10D
:100370002001BFF4F7AF090728BFA0E80C5048BF21
:100380000CC05DF804EB890028BF40F8042B08BFBF
:10039000704748BF20F8022B11F0804F18BF00F8BB
:1003A000012B704770477047704700000048704746
:1003B000FC9600207546FFF7F9FFAE46050069463A
:1003C000534620F00700854618B020B5FFF73AFFE6
:1003D000BDE820404FF000064FF000074FF0000846
:1003E0004FF0000B21F00701AC46ACE8C009ACE8C7
:1003F000C009ACE8C009ACE8C0098D46704710B52B
:100400000446AFF300802046BDE81040FFF705BF6B
:1004100001491820ABBEFEE7260002007047FEE748
:100420007047102000F044B872B6FEE770B504467D
:1004300000F048F90546601C02D0044800780444E6
:1004400000F040F9401BA042FAD370BD000000202C
:1004500010B5102827D11449144C0878012814D05D
:10046000022820D10020087002460221204600F018
:1004700023F901220221204600F01EF90022204625
:10048000BDE81040042100F017B9022008700146B1
:100490000022204600F010F901220221204600F03F
:1004A0000BF90122EBE710BD2F000020000C0240E9
:1004B000044910B50A68024202D00860FFF7C8FF7D
:1004C00010BD0000143C01402DE9F84FDFF8BCA13D
:1004D0000022012503264FF00F090AF1040BAAF1AF
:1004E000040E00BF0B6805FA02F42340A34270D14A
:1004F0000F7907F00307012F01D0022F16D187686B
:100500004FEA420806FA08FC27EA0C07D1F80CC0AB
:100510000CFA08FC4CEA070CC0F808C04768A7436F
:100520000C79C4F3001494403C4344600C79E443D8
:10053000A4070AD0C4684FEA420C06FA0CF7BC4381
:100540008F6807FA0CF72743C7600C7904F003049F
:10055000022C12D1D40800EB840CDCF820405707A1
:10056000FF0E09FA07F824EA0804D1F8108008FA07
:1005700007F848EA0408CCF8208004684FEA420CE7
:1005800006FA0CF7BC430F7907F0030707FA0CF7DC
:10059000274307604C6814F4403F70D03C4C2768F8
:1005A00047F480472760246822F0030704F480445E
:1005B0000094384C07EB040CDCF8084897074FEA26
:1005C000177809FA08F7BC43334FB84202D1002725
:1005D00024E054E0314FB84201D101271EE0304FF2
:1005E000B84201D1022719E02E4FB84201D10327AA
:1005F00014E02D4FB84201D104270FE02B4FB84231
:1006000001D105270AE02A4FB84201D1062705E0AB
:10061000284FB84201D1072700E0082707FA08F75A
:100620002743CCF80878DAF800405746D1F804C0E0
:100630009C435FEACC2C00D51C433C60DBF80040B7
:100640005F46D1F804C09C435FEA8C2C00D51C4364
:100650003C60DEF800407746D1F804C09C435FEA76
:100660008C3C00D51C433C60084F083F3C68D1F8E7
:1006700004C09C435FEACC3C00D51C433C60521C48
:10068000102AFFF42FAFBDE8F88F0000083C0140AE
:1006900044380240003001400000024000040240A3
:1006A00000080240000C024000100240001402400A
:1006B00000180240001C02400AB181617047090421
:1006C000FBE7000001488068704700000000002040
:1006D00070B5040025D094F83D00002520B984F8B9
:1006E0003C50204600F050F9242084F83D0020685A
:1006F000016821F0010101602068016841F40041B6
:1007000001602068016821F40041016000F042FBB3
:100710004D4A6168914201D84C4900E04C498842F9
:1007200001D2012070BD4B492368B0FBF1F15E6836
:1007300026F03F060E435E606368934206D94FF48D
:10074000967359434FF47A73B1FBF3F12368491C54
:100750001E6A26F03F06314319626168914210D843
:100760004900401EB0FBF1F2521CC2F30B02042AF6
:1007700001D2042022E0B0FBF1F0401CC0F30B00DA
:100780001CE0A268F2B301EBC10303EB0116431EA8
:10079000B3FBF6F35B1C43F480431B0549D092B3D3
:1007A00001EBC10202EB0111401EB0FBF1F0401C55
:1007B000C0F30B0040F4804040F400402168CA6957
:1007C0004CF6FF739A431043C861D4E90710014304
:1007D0002068026822F0C00211430160D4E90301DD
:1007E00001432068826848F2FF339A4311438160D5
:1007F000D4E9050108432168CA6822F0FF021043CA
:10080000C86001E00EE016E02068016841F00101D7
:1008100001602564202084F83D00256384F83E5063
:10082000002070BD01EB4106431EB3FBF6F35B1CD9
:10083000B3E70120C2E701EB4101401EB0FBF1F03C
:10084000401CC0F30B00B7E7A086010080841E00A7
:1008500000093D0040420F002DE9FF4F83B09A464A
:10086000DDE9119793460446DDF84080FFF72AFF43
:10087000054694F83D0020287FD1192301224049E4
:100880002046009500F0FEFF002876D194F83C0049
:10089000012872D0012084F83C0020680168C90753
:1008A00003D1016841F0010101602068016821F471
:1008B00000610160212084F83D00402084F83E0062
:1008C00000262664C4F82480A4F82A90608D208530
:1008D0002C48E062CDE9007553465A4620460499FB
:1008E00000F056FF70B930E02A463946204601F044
:1008F00048F858B1206C042804D12068016841F4FC
:1009000000710160012007B0BDE8F08F606A2168C6
:1009100000780861606A401C6062218D491E89B2BE
:100920002185628D521E628522685369DB435B0715
:100930000BD469B100781061606A401C6062208D40
:10094000401E2085608D401E6085208D0028CBD103
:100950002A463946204600F06FFF0028CAD154F8D5
:100960003D0B016841F400710160202004F81E096C
:10097000E67766770020C6E7FFE70220C3E70000BE
:10098000020010000000FFFF10B586B004461421DD
:100990006846FFF7E0FC13492068884220D11248DE
:1009A000016841F0020101600068694600F0020040
:1009B0000590C02000901220019001200290032099
:1009C0000390042004900948FFF77EFD064810308C
:1009D000016841F400110160006800F40010059006
:1009E00006B010BD00540040303802400004024000
:1009F000024881680278114481607047000000203D
:100A00000B4810B5016841F400710160016841F4C0
:100A100080610160016841F480710160032000F091
:100A20006FF80F2000F006F800F024F8002010BD49
:100A3000003C024070B50D4D04464FF47A712878A1
:100A4000B1FBF0F00A490968B1FBF0F000F073FE69
:100A500048B9102C07D200222146501E00F030F871
:100A600000206C6070BD012070BD000000000020FF
:100A70000C0000200A4808B5016841F4804101607B
:100A8000006800F4804000900548001F016841F0B4
:100A900080510160006800F08050009008BD0000A7
:100AA00044380240002809DB00F01F020121914078
:100AB0004009800000F1E020C0F8001170470000FC
:100AC000F0B40E4B1B680C46C3F30223C3F10705B9
:100AD000042D00D90425191D072901D2002300E0A7
:100AE000DB1E012606FA05F1491E214099409E4071
:100AF000761E16403143F0BC01F09EBD0CED00E0C7
:100B0000064900F0070208684FF6FF03184040EA64
:100B10000220034A10430860704700000CED00E01B
:100B20000000FA052DE9F843054600684FF0010979
:100B3000C1074FF0000601D1400727D5DFF80C812F
:100B4000C8F86860FFF7BEFD0746414C05E000BFEE
:100B5000FFF7B8FDC01B022857D820680001F7D462
:100B600068688101287A41EA007039498431086057
:100B7000C8F86890FFF7A6FD074604E0FFF7A2FD5E
:100B8000C01B022841D820680001F7D528788007CB
:100B900052D52F484030016841F080510160006813
:100BA0002C4C00F080500090206840F48070206051
:100BB000FFF788FD074604E0FFF784FDC01B02280D
:100BC00023D82068C005F7D5214C7034206810F474
:100BD000407020D0A98901F4407181421BD0206867
:100BE0001D4920F44070C1F800900E60206020681C
:100BF000C00710D0FFF766FD064641F2883707E0D0
:100C0000FFF760FD801BB84202D90320BDE8F883DE
:100C100020688007F4D5E9680D48C1F30122083047
:100C2000032A0BD0016821F4F81101602068A9891A
:100C3000C1F30B01084320600020E7E70268074B7F
:100C400022F4F81219400A430260EFE7000047421D
:100C50000038024000700040400E4742FFFCFF0F8A
:100C60002DE9F0470E46050065D0DFF81481D8F86D
:100C70000000F7B200F00700B04207D288F8007019
:100C8000D8F8000000F00700B04254D128683D4C6D
:100C9000810712D5400703D5206840F4E05020605A
:100CA0002878000703D5206840F460402060206861
:100CB000A96820F0F000084320602878C0072DD0F4
:100CC000304968680839012812D0022813D0032857
:100CD00011D00968890700292DDA216821F0030164
:100CE00001432160FFF7EEFC814641F2883A0EE0B5
:100CF00009688903EFE709688901ECE7FFF7E2FC7F
:100D0000A0EB0901514502D90320BDE8F087206816
:100D1000696800F00C00B0EB810FEFD1D8F800103B
:100D2000404601F00701B14207D90770006800F0A2
:100D30000700B04201D00120E7E72878400705D539
:100D40002068E96820F4E050084320602878000714
:100D500006D52068296920F4604040EAC10020607F
:100D600000F028F82168084AC1F30311515CC8401B
:100D70000649086006480068FFF75CFE0020C4E7EB
:100D8000003C024008380240682D00080C0000209A
:100D9000040000200448054900680968044AC1F3BA
:100DA0008221515CC84070470C0000200838024086
:100DB000782D0008154810B5006810F00C02144892
:100DC00013D01449042A0FD0082A0ED10F4C241F27
:100DD0002268236802F03F025B0207D52068C0F357
:100DE0008810A0FB010106E0084610BD2168C1F390
:100DF0008811A1FB00010023FFF736FA2168C1F337
:100E00000141491C4900B0FBF1F010BD0838024017
:100E10000024F40040787D012DE9F84F04006ED0E5
:100E20002078DFF84C93C007A9F104054AD009F1F6
:100E300004000168C1F38101012908D00068C0F3F2
:100E4000810002280AD1D9F80000400206D528689E
:100E5000800337D560680028E1D033E06068B0F5E2
:100E6000803F10D0B0F5A02F286810D020F480303B
:100E70002860286820F4802028606068A8B1FFF707
:100E800021FC06460DE0286840F48030F4E740F489
:100E900080202860F7E700BFFFF714FC801B642860
:100EA00073D828688003F7D50CE0FFF70BFC0646E3
:100EB00005E000BFFFF706FC801B6428F0D8286817
:100EC0008003F7D42078DFF8AC8280074FF0000A67
:100ED0003ED5A748001D016811F00C0F08D000682E
:100EE000C0F3810002280BD1D9F80000400207D4DA
:100EF0002868800716D5E068012800D112E033E1A8
:100F0000E068B8B10120C8F80000FFF7DBFB064637
:100F100005E000BFFFF7D6FB801B0228C0D8286879
:100F20008007F7D52868216920F0F80040EAC10061
:100F300028600DE0C8F800A0FFF7C4FB064604E0F7
:100F4000FFF7C0FB801B02281FD828688007F7D452
:100F50002078000722D5864F87486169703771B1C4
:100F600001210160FFF7AEFB064604E0FFF7AAFB94
:100F7000801B022809D838688007F7D50EE0C0F832
:100F800000A0FFF79FFB064605E082E0FFF79AFB13
:100F9000801B02287DD838688007F7D42078400766
:100FA00068D5DFF8CCB100270BF13C0BDBF8000073
:100FB000C0000BD4DBF8001041F08051CBF80010DA
:100FC000DBF80000012700F0805000906B4E306885
:100FD000C00510D4306840F480703060FFF772FBB9
:100FE000009005E0FFF76EFB0099401A022850D8E8
:100FF0003068C005F6D55E4EA0686C3601280FD06B
:101000000528306810D020F001003060306820F0F2
:1010100004003060A068B8B1FFF754FB00900FE007
:10102000306840F00100F4E740F004003060F7E77A
:10103000FFF748FB0099411A41F28830814266D897
:1010400030688007F4D50EE0FFF73CFB009007E026
:10105000FFF738FB0099411A41F28830814256D897
:1010600030688007F4D42FB1DBF8001021F08051F4
:10107000CBF80010A069C8B33D49091D0968C1F348
:10108000810102294AD00228504607D0C8F86000E2
:1010900000E03CE0FFF716FB04463BE04746C8F89B
:1010A0006000FFF70FFB064605E000BFFFF70AFBF5
:1010B000801B02282BD828688001F7D4D4E90701C7
:1010C0000843A16A2E4A490802EB0141626A41EADB
:1010D0008211084394F82C1040EA0161C9F800100D
:1010E00001203866FFF7EEFA044606E03EE000BF56
:1010F000FFF7E8FA001B022809D828688001F7D515
:1011000034E000BFFFF7DEFA001B022802D90320FB
:10111000BDE8F88F28688001F4D427E00128F7D0D3
:10112000D9F80000E26900F4800191421CD1226AE2
:1011300000F03F01914217D147F6C071626A014049
:10114000B1EB821F10D1A26A4FF0FF3300F440319F
:1011500003EB5202B1EB024F06D194F82C1000F0D1
:101160007060B0EB016F01D00120D1E70020CFE724
:101170000438024000004742800E474200700040A1
:101180000000FFFF2DE9F74F0446007F934601283A
:101190001BD04FF0010884F81C8002206077216882
:1011A000CA204862206853214162206880684FF05D
:1011B000000540054FF0FF064FF0030A4FF47A791F
:1011C0000FD5FFF77FFA074607E00220BDE8FE8F44
:1011D000FFF778FAC01B484519D82068C068400757
:1011E000F6D42068816821F4806181602068C1683C
:1011F00001F0800161F49061C160FFF763FA074676
:101200000CE000BFFFF75EFAC01B484506D9206816
:10121000466284F81DA025770320D7E72068C068C0
:101220004007EFD52068816821F0070181602068C0
:10123000816841EA0B01816021680198486120685A
:10124000816841F4806181602068466284F81D8075
:1012500025770020BAE7000010B5040002D0607FB7
:1012600010B106E0012010BD00202077204600F0DC
:1012700039F8022060772168CA204862216853202B
:101280004862204600F018FE30BB20688168144A8E
:10129000114081602168886862681043D4E90423A2
:1012A0001A43104388602168E0680861206801697A
:1012B000228941EA02410161204600F021FE58B92D
:1012C00021680A6C22F480220A6421680A6CA369EE
:1012D0001A430A64012161772268FF21516210BD1F
:1012E000BFFF8FFF1FB50021009101910291039173
:1012F0000068084988420CD102200090C001039088
:101300006846FFF70FFC08B1FFF78EF8024901208D
:1013100008601FBD002800403C0E474270B50446DF
:10132000007F0B46012819D001262677022060771E
:10133000B2B19878D97840EA014558781978000216
:1013400040EA413005432168CA20486221685320A1
:101350004862204600F0B0FDD0B122E0022070BD0E
:101360005878C10603D500F0EF000A305870D878DD
:1013700000F095FD0204587800F091FD42EA002249
:10138000987800F08CFD0243187842EA4035DAE79D
:101390000748054020684560204600F0B1FD00B9CF
:1013A00066772268FF2151620021217770BD00001D
:1013B0003FFFFF002DE9F0410446007F0D46012864
:1013C00023D04FF0010884F81C8002206077206849
:1013D000002780684FEA4060D2B1002800DBEF7040
:1013E000A878297840EA01466878E978000240EA5E
:1013F000815006432168CA20486221685320486210
:10140000204600F059FDB8B12CE00220BDE8F08183
:10141000002800DBEF70287800F041FD02046878B6
:1014200000F03DFD42EA0022A87800F038FD0243BA
:10143000E87842EA8056DDE70D48064020680660FD
:101440002068816821F480218160D5E90301084387
:1014500021688A6810438860204600F051FD08B971
:1014600084F81D802268FF2151622777CEE70000B3
:101470007F7F7F0070B504460068C16821F0A0013D
:10148000C160FFF71FF905464FF47A7607E000BF09
:10149000FFF718F9401BB04201D9032070BD206846
:1014A000C0688006F4D5002070BD70B5040009D076
:1014B000606A002540B125616561A56294F851001C
:1014C00040B10CE0012070BD6068B0F5827FF4D0BF
:1014D000E561F2E784F85050204600F045F802201C
:1014E00084F851002068016821F040010160A08863
:1014F000218900F4827001F404410843A18901F4B8
:1015000000610843217C01F002010843217D01F0C4
:1015100001010843218B01F400710843217F01F090
:101520003801084394F8201001F080010843218D10
:1015300001F40051084321680860A069042101EA10
:10154000104094F8241001F010010843216848600D
:101550002068C16921F40061C1616565012084F8DA
:101560005100002070BD000010B586B00446142163
:101570006846FEF7F0FE1349206888421FD11248E2
:101580000021026842F480520260006800F480503A
:1015900005900D481438026842F0010202600068AC
:1015A00000F001000590A02000900220CDE901018B
:1015B00003900520049069460448FEF785FF06B0B5
:1015C00010BD0000003001404438024000000240DD
:1015D0002DE9F84F044690F8500000271D461646A6
:1015E000894601280DD04FF0010B84F850B0FFF769
:1015F00069F8804694F85100BA46012804D00227C1
:1016000093E00220BDE8F88FB9F1000F73D0002EEF
:1016100071D0032084F85100C4F854A0C4F830906D
:10162000A686E686C4F838A0A4F83CA0A4F83EA09C
:10163000C4F844A0C4F840A0A068B0F5004F09D198
:101640002068016821F0400101602068016841F4D0
:101650008041016020680168490603D4016841F0B7
:1016600040010160E068B0F5006F606803D030B3FE
:10167000012E24D041E008B1012E1CD1206B21683D
:101680000088C86006E020688168890709D5216B59
:101690000988C160206B801C2063E08E401EE086BC
:1016A00009E0FFF70FF8A0EB0800A84202D3681C7E
:1016B00001D031E07DB3E08E0028E4D120E0206B42
:1016C00021680078087306E020688168890709D5D9
:1016D000216B09780173206B401C2063E08E401E53
:1016E000E0860AE0FEF7EEFFA0EB0800A84203D375
:1016F000681C02D010E017E06DB1E08E0028E3D145
:1017000042462946204600F011FC08B120206065C1
:10171000A06818B106E0FFE7032706E02068C1686B
:1017200080680090606D00B1012784F851B084F8A2
:1017300050A0384666E710B5401EB0F1807F01D357
:10174000012010BD4FF0E02460610F21601700F010
:1017500073FF0020A06107202061002010BDFEE77C
:1017600001684A69D24352050FD46FF480624A611E
:10177000002140F8301F202242738173026942F039
:1017800004020261017301207047002070470000CD
:101790002DE9F843044600680D46DDE90897016825
:1017A0009846164641F4807101604B4600224FF086
:1017B00001112046009700F065F848B120680068E4
:1017C000C00502D54FF4007020640320BDE8F88303
:1017D000216805F0FE0008613B464A46154920464F
:1017E00000F084F888B920684169806900903A4621
:1017F0004946204600F0C5F848B1206C042804D1C1
:101800002068016841F4007101600120DEE7F5B253
:10181000B8F1010F09D02168300A08613A464946FB
:10182000204600F0AEF80028E7D1206805610020CE
:10183000CCE700000200010070B516460D460446D4
:101840000DE02046FFF78CFF08B1012070BD681C39
:1018500005D0FEF737FF801BA84207D835B12068B6
:101860004069C0434007ECD4002070BD002044F81C
:10187000300F20216173A073216941F020012161A3
:101880002073E2E72DE9F0471E4690460D460446D8
:10189000C1F30747DDF8209008E0701C06D0FEF782
:1018A00011FFA0EB0900B0420FD876B12068012FDC
:1018B00018D0806925EA00000004000C14D0002133
:1018C0004145EAD00020BDE8F087002044F8300F01
:1018D00020216173A073216941F0200121612073EF
:1018E0000120F0E74069E5E70121E9E72DE9F0474C
:1018F0009A4691460E46044600254FF02008C1F353
:10190000074725E020684069C043400514D420689B
:10191000016841F40071016021686FF480604861E2
:10192000256384F83D8084F83E50206C40F004002C
:10193000206484F83C501FE0B9F1FF3F08D0FEF767
:10194000C1FEA0EB0A0149450CD8B9F1000F09D03E
:101950002068012F13D0806926EA00000004000CE3
:101960000BD0CFE744F8305F84F80D80A573206971
:1019700040F02000206125730120BDE8F087406918
:10198000EAE770B516460D4604460DE02046FFF71F
:10199000E7FE08B1012070BD681C05D0FEF792FE7D
:1019A000801BA84207D835B120684069C0430006B3
:1019B000ECD4002070BD002044F8300F202161736A
:1019C000A073216941F0200121612073E2E700004A
:1019D000F0B587B014216846FEF7BDFC36480024F8
:1019E000016841F004010160016801F00401059102
:1019F000016841F020010160016801F020010591BA
:101A0000016841F080010160016801F080010591E9
:101A1000016841F001010160016801F001010591D7
:101A2000016841F008010160016801F008010591B9
:101A3000016841F0020101600068204E00F00200E0
:101A40000590002258213046FEF736FE1C4F00223A
:101A50001F213846FEF730FEFF20CDE9000469461D
:101A600018480294FEF730FD582000900125CDE97A
:101A70000154694630460394FEF726FD102000907D
:101A80004FF40410CDE9010569460F48FEF71CFD2F
:101A90001F20CDE900050320CDE902406946384604
:101AA000FEF712FD002211460A20FFF709F80A206E
:101AB000FEF7F8FF07B0F0BD3038024000000240EA
:101AC000000C024000140240000802400D4810B50E
:101AD0000B4901600C49416000214FF48042816054
:101AE000C0E9031241618161C1610162FEF7F0FD4D
:101AF000002803D0BDE81040FEF796BC10BD0000E2
:101B00000054004030000020A086010010B586B0CF
:101B100014216846FEF71FFC224800242049059442
:101B2000C0E900147F218160FF21C0E903144461F2
:101B30008461FFF791FB08B1FEF776FC15208DF864
:101B4000000030208DF801008DF80240039401223E
:101B5000694614480494FFF72DFC08B1FEF764FCB5
:101B600001208DF8140007208DF8150006208DF84F
:101B7000160020208DF81700012205A90948FFF75B
:101B8000CDFB08B1FEF750FC002211460548FFF7D7
:101B9000F9FA002801D0FEF747FC06B010BD00009E
:101BA0000028004084000020104810B50E49016054
:101BB0004FF48271416000218160C1604FF4007276
:101BC0000161C0E905121022C0E90721416281626A
:101BD0000A21C162FFF769FC002803D0BDE810406C
:101BE000FEF722BC10BD000000300140A400002020
:101BF000FEE7FEE770B5002404F1B000C0B200F0CB
:101C0000E1F8002000F0DEF8102000F0DBF80025FD
:101C1000002000F0E9F86D1CEDB2802DF8D3641CB3
:101C2000E4B2082CE8D370BD70B5C820FEF7FEFB07
:101C3000064D0024285D00F0C5F8641CE4B2172CA2
:101C4000F8D3BDE87040FFF7D5BF000010000020BA
:101C500010B50446B031C8B200F0B4F8102040EA24
:101C6000141000F0AFF804F00F00BDE8104000F0D1
:101C7000A9B800002DE9F0411E4615460F468046E2
:101C80000024FFF7E5FF114800EB8515285D0EB134
:101C9000C043C0B200F0A8F8641CE4B2102CF5D325
:101CA0007F1CF9B24046FFF7D3FF002405EB040088
:101CB00090F820000EB1C043C0B200F095F8641C4B
:101CC000E4B2102CF2D3BDE8F081000088350008A2
:101CD0002DE9F047203A0024089E0F468146D5B2F0
:101CE0007F2803D900208F1C8146FFB2102B394674
:101CF00012D0FFF7ADFF1B4905EB450001EB400596
:101D0000285D0EB1C043C0B200F06EF8641CE4B2AE
:101D1000062CF5D3BDE8F087FFF79AFFDFF848807F
:101D200004EB051118F801000EB1C043C0B200F079
:101D30005BF8641CE4B2082CF2D37F1CF9B248466D
:101D4000FFF786FF0024474604EB05103844007A6D
:101D50000EB1C043C0B200F047F8641CE4B2082CD6
:101D6000F2D3D7E7802D0008A82F00082DE9F8430B
:101D70001E461746894604460025DDF8208014E0FB
:101D8000334649462046CDF80080FFF7A1FF0C2ED0
:101D900010D00834E4B27A2C01D90C2E0CD0782C57
:101DA00001D9102E08D06D1CEDB27A5D002AE7D162
:101DB000BDE8F883A41DEDE709F10100002400F05F
:101DC000FF09F0E701B584B001214FF4807204A847
:101DD0008DE807000B46002278210248FEF73CFD03
:101DE00005B000BD3000002001B584B001214FF4E2
:101DF000807204A88DE807000B4640227821024833
:101E0000FEF72AFD05B000BD3000002008B5FFF741
:101E1000F1FE012000210090102319A20846FFF7CF
:101E2000A5FF00200C2319A202210090FFF79EFFBE
:101E30000022012304211046FFF71CFF01231A464C
:101E400004211020FFF716FF012302220421202085
:101E5000FFF710FF00231A4606211846FFF70AFF76
:101E60000023012206211020FFF704FF01B0002308
:101E70000222062120205DF804EBFFF7FBBE0000E4
:101E8000554E49434F524E5F4C490000756E696391
:101E90006F726E5F6C695F313233000070470021F2
:101EA00003E0491C0A38C9B2C0B20A28F9D20907AE
:101EB00040EA1160704700002DE9F04104460068D7
:101EC0000025C168490618D4C16841F08001C1608D
:101ED000FEF7F8FB06464FF47A78042707E000BFC8
:101EE000FEF7F0FB801B404501D96777012520688C
:101EF000C068400601D4002DF2D02846BDE8F0812C
:101F000070B5044600680025C16821F08001C160F9
:101F100020688068800606D42046FFF7ABFA10B12F
:101F2000042060770125284670BD000038B50446BE
:101F30001248134B0068B0FBF3F04FF47A73584328
:101F400000906068B0F5827F0DD10B4600920022B0
:101F50008021204600F016F870B1606D40F020003E
:101F60006065032038BD009830B1401E00902068A5
:101F70008068C0430006F6D5002038BD0C00002064
:101F800000366E012DE9F8431E4691468846044608
:101F9000089DFEF797FB401B351AFEF793FB07469B
:101FA00025480068C0F3CB30684338E0701C37D058
:101FB000FEF788FBC01BA84203D215B1009860B39E
:101FC0002CE02068416821F0E00141606068B0F5D4
:101FD000827F0BD1A068B0F5004F02D0B0F5806FC2
:101FE00004D12068016821F040010160A06AB0F5C9
:101FF000005F09D12068016821F400510160206868
:10200000016841F400510160012084F85100002072
:1020100084F850000320BDE8F8830025401E00909E
:102020002068816838EA010004D000214945BDD10B
:102030000020F0E70121F9E70C0000202DE9F0472E
:10204000A028089F2CD878292AD88418A02C01D938
:10205000C0F1A00295B2CA18782A01D9C1F178035B
:102060009EB200234FEA172A0E4C07F0FF0915E035
:102070000022CF1807EB870700EB47180AE000BFE4
:1020800008EB0207521C04F817A004EB470792B2B2
:1020900087F80190AA42F3D35B1C9BB2B342E7D30B
:1020A000BDE8F087FC0000202DE9F04F16468B4676
:1020B000054600274FEA132A03F0FF090BEB070040
:1020C000002400EB8008305D00F050FBC05D50B193
:1020D0002919224801EB481100F811A000EB41003A
:1020E00080F8019009E000202A191C4902EB4812EF
:1020F00001F8120001EB42014870641C082CE2DB7D
:102100007F1C082FDADB002700240BEB07000830C8
:1021100000EB80083019007A00F028FBC05D50B158
:1021200029190E4801EB481100F811A000EB4100FD
:1021300080F8019009E000202A19084902EB4812B2
:1021400001F8120001EB42014870641C082CE1DB2D
:102150007F1C082FD8DBBDE8F08F0000FC000020BA
:1021600008B5002100907823A0220846FFF766FFFB
:1021700008BD10B500F00EF9112000F0B9F9782073
:10218000FEF754F9B12000F0B3F9012000F0CCF9CA
:102190002C2000F0C9F92D2000F0C6F9B22000F083
:1021A000A7F9012000F0C0F92C2000F0BDF92D2086
:1021B00000F0BAF9B32000F09BF9012000F0B4F967
:1021C0002C2000F0B1F92D2000F0AEF9012000F034
:1021D000ABF92C2000F0A8F92D2000F0A5F9B420CF
:1021E00000F086F9072000F09FF9C02000F080F988
:1021F000A22000F099F9022000F096F9842000F066
:1022000093F9C12000F074F9C52000F08DF9C220C7
:1022100000F06EF90A2000F087F9002000F084F940
:10222000C32000F065F98A2000F07EF92A2000F032
:102230007BF9C42000F05CF98A2000F075F9EE20EB
:1022400000F072F9C52000F053F90E2000F06CF98F
:10225000202000F04DF93A2000F04AF9052000F066
:1022600063F92A2000F044F9002000F05DF9002015
:1022700000F05AF9002000F057F97F2000F054F9DF
:102280002B2000F035F9002000F04EF9002000F07E
:102290004BF9002000F048F99F2000F045F9E020BC
:1022A00000F026F9022000F03FF91C2000F03CF974
:1022B000072000F039F9122000F036F9372000F03D
:1022C00033F9322000F030F9292000F02DF92D20CB
:1022D00000F02AF9292000F027F9252000F024F940
:1022E0002B2000F021F9392000F01EF9002000F029
:1022F0001BF9012000F018F9032000F015F9102057
:1023000000F012F9E12000F0F3F8032000F00CF9DE
:102310001D2000F009F9072000F006F9062000F062
:1023200003F92E2000F000F92C2000F0FDF8292000
:1023300000F0FAF82D2000F0F7F82E2000F0F4F865
:102340002E2000F0F1F8372000F0EEF83F2000F0EA
:10235000EBF8002000F0E8F8002000F0E5F802209B
:1023600000F0E2F8102000F0DFF8132000F0C0F8D1
:102370000A20FEF75BF8292000F0BAF80A20FEF7E1
:1023800055F8032000F046F8BDE810400020FFF7A4
:10239000E7BE000010B5094C002240212046FEF7A0
:1023A0008BF96420FEF742F8012240212046FEF717
:1023B00083F9BDE810406420FEF738B80000024001
:1023C0002DE9F041401CC5B2891C521C9B1CCCB2AB
:1023D000D6B2DFB22A2000F08BF8002000F0A4F87B
:1023E000284600F0A1F8002000F09EF8304600F0EA
:1023F0009BF82B2000F07CF8002000F095F8204698
:1024000000F092F8002000F08FF83846BDE8F04167
:1024100000F08AB810B5002430B1012806D0022897
:1024200007D0032805D103E0C02402E0A02400E087
:102430006024362000F05CF82046BDE8104000F033
:1024400073B8000010B4044C04EB021210BCA2F5E7
:102450000072FFF729BE0000483600082DE9F0435E
:102460008946074615461C460A26DDF81C8010E002
:10247000B5FBF6F006FB105207EBC400083880B23B
:10248000434649463032FFF7DDFFB5FBF6F5641EE3
:10249000E4B2002CECD1BDE8F083000010B50021BF
:1024A00077239F220846FFF78BFF2C2000F020F8AF
:1024B0000C4C012210212046FEF7FEF800220821D4
:1024C0002046FEF7F9F864234FF416420649074800
:1024D000FFF77EF820460122BDE810400821FEF7F4
:1024E000EBB8000000000240FC000020A400002027
:1024F00031B50B4C002210212046FEF7DDF80022FA
:1025000008212046FEF7D8F86423012269460548D1
:10251000FFF75EF8012208212046FEF7CDF838BD0E
:1025200000000240A400002031B50B4C0122102114
:102530002046FEF7C1F8002208212046FEF7BCF82D
:102540006423012269460548FFF742F80122082169
:102550002046FEF7B1F838BD00000240A40000207C
:102560007047FEF745BA000030B593B03021684699
:10257000FDF7F1FE14210CA8FDF7EDFE1E48002426
:10258000016841F080510160006800F080501190B6
:102590001A48016841F4804101600068022500F496
:1025A000804011900620009001200290039010209E
:1025B000049006950820CDE90740A820CDE909053B
:1025C00004200B906846FEF727FC08B172B6FEE7C0
:1025D0000F20CDE90C054FF4A050CDE90E404FF48B
:1025E0008050109005210CA8FEF73AFB002801D07E
:1025F00072B6FEE713B030BD4038024000700040B4
:102600000248016841F470010160704788ED00E004
:10261000FEE7000003B583B04FF48073012204A9E4
:102620008DE80E001346024642210248FEF714F9D7
:1026300005B000BD300000200907090E002804DBAA
:1026400000F1E02080F80014704700F00F0000F166
:10265000E02080F8141D70472DE9F05F404D002206
:1026600001212846FEF728F8002208212846FEF717
:1026700023F8012208212846FEF71EF8002208212F
:102680002846FEF719F8012211462846FEF714F8ED
:10269000012208212846FEF70FF8DFF8C8B0DFF85E
:1026A000C8800024A94600255E4604EB840A002267
:1026B00008214846FEF700F8306805EB4A1701226A
:1026C00008F8170008214846FDF7F6FF0022082108
:1026D0004846FDF7F1FF306808EB470101224870DA
:1026E00008214846FDF7E8FF002208214846FDF78B
:1026F000E3FF012208214846FDF7DEFF0022082102
:102700004846FDF7D9FF012208214846FDF7D4FFCE
:102710006D1CADB2A02DCAD300254E464FF4A07754
:10272000002208213046FDF7C7FF0122082130466C
:10273000FDF7C2FF002208213046FDF7BDFF012250
:1027400008213046FDF7B8FF6D1CADB2BD42E7D39E
:10275000641CA4B2782CA6D3BDE8F05FFFF79EBE40
:10276000000C024010140240FC00002030B5012291
:10277000084B00214FF6FF7410EA020500D0012536
:102780005D54491CC9B204EA42020829F4D3014845
:1027900030BD00002700002008B5FEF731F9FFF733
:1027A000E3FEFFF715F9FFF7B1F9FFF7FDF9FFF7C2
:1027B0008DF9FFF7DEFCFFF737FA00F01DF8FFF7A1
:1027C00025FB0020FFF7CCFC4FF6FF7001233221E0
:1027D00000901A460846FFF741FEFFF75FFE054CE2
:1027E000012520780028FCD1FFF736FFFFF756FEC1
:1027F0002570F6E72F00002010B50C4C00221021A8
:102800002046FDF759FF1420FDF710FE012210218C
:102810002046FDF751FF80211220FFF7FBFE142018
:10282000FDF704FEBDE8104000F002B8000C0240C5
:1028300010B5F0210020FFF7EDFE80210120FFF709
:10284000E9FE80210220FFF7E5FE00218C20FFF742
:10285000E1FE04213A20FFF7DDFED0214020FFF702
:10286000D9FE14211220FFF7D5FE80213220FFF778
:10287000D1FE16211720FFF7CDFE04211820FFF707
:10288000C9FE02211920FFF7C5FE7B211A20FFF7A0
:10289000C1FE06210320FFF7BDFE00210C20FFF73B
:1028A000B9FE00213E20FFF7B5FE3A217020FFF768
:1028B000B1FE35217120FFF7ADFE11217220FFF727
:1028C000A9FE00217320FFF7A5FE0221A220FFF739
:1028D000A1FE81211120FFF79DFE20217A20FFF724
:1028E00099FE1C217B20FFF795FE28217C20FFF715
:1028F00091FE3C217D20FFF78DFE55217E20FFF7C4
:1029000089FE68217F20FFF785FE76218020FFF772
:1029100081FE80218120FFF77DFE88218220FFF744
:1029200079FE8F218320FFF775FE96218420FFF723
:1029300071FEA3218520FFF76DFEAF218620FFF7F2
:1029400069FEC4218720FFF765FED7218820FFF7A5
:1029500061FEE8218920FFF75DFEE0211320FFF7EB
:1029600059FE40211020FFF755FE00210D20FFF7F2
:1029700051FE28211420FFF74DFE0521A520FFF769
:1029800049FE0721AB20FFF745FE75212420FFF704
:1029900041FE63212520FFF73DFEA5212620FFF7FC
:1029A00039FE78219F20FFF735FE6821A020FFF730
:1029B00031FE0321A120FFF72DFEDF21A620FFF726
:1029C00029FEDF21A720FFF725FEF021A820FFF731
:1029D00021FE9021A920FFF71DFE9421AA20FFF7D8
:1029E00019FEE5211320FFF715FE61210E20FFF7E8
:1029F00011FE4B210F20FFF70DFE02211620FFF7DD
:102A000009FE37211E20FFF705FE02212120FFF7D6
:102A100001FE91212220FFF7FDFD07212920FFF76C
:102A2000F9FD0B213320FFF7F5FD0B213520FFF7D2
:102A3000F1FD1D213720FFF7EDFD71213820FFF753
:102A4000E9FD2A213920FFF7E5FD78213C20FFF739
:102A5000E1FD40214D20FFF7DDFD20214E20FFF755
:102A6000D9FD00216920FFF7D5FD60216B20FFF71C
:102A7000D1FD19217420FFF7CDFD4F218D20FFF7E7
:102A8000C9FD00218E20FFF7C5FD00218F20FFF733
:102A9000C1FD00219020FFF7BDFD00219120FFF72F
:102AA000B9FD00219220FFF7B5FD00219620FFF728
:102AB000B1FD80219A20FFF7ADFD8421B020FFF702
:102AC000A9FD0C21B120FFF7A5FD0E21B220FFF7D3
:102AD000A1FD8221B320FFF79DFD0A21B820FFF759
:102AE00099FD14214320FFF795FDF0214420FFF7C5
:102AF00091FD34214520FFF78DFD58214620FFF739
:102B000089FD28214720FFF785FD3A214820FFF75E
:102B100081FD88215920FFF77DFD88215A20FFF78C
:102B200079FD44215B20FFF775FD67215C20FFF7ED
:102B300071FD49215D20FFF76DFD0E215E20FFF73D
:102B400069FD04216420FFF765FD20216520FFF762
:102B500061FD05216620FFF75DFD04219420FFF74C
:102B600059FD08219520FFF755FD0A216C20FFF73C
:102B700051FD55216D20FFF74DFD11216E20FFF70E
:102B800049FD9F216F20FFF745FD40216A20FFF797
:102B900041FDE7211320FFF73DFD00211520FFF740
:102BA00039FD80214F20FFF735FD80215020FFF7B0
:102BB00031FD00215120FFF72DFD22215220FFF78A
:102BC00029FD5E215320FFF725FD80215420FFF7CA
:102BD00021FD9E215820FFF71DFD08214120FFF710
:102BE00019FD00213F20FFF715FD05217520FFF796
:102BF00011FDE1217620FFF70DFD00214C20FFF7AC
:102C000009FD01217720FFF705FDC2213D20FFF7D7
:102C100001FD09214B20FFF7FDFC6021C920FFF7D2
:102C2000F9FC38214120FFF7F5FC40215620FFF741
:102C3000F1FC11213420FFF7EDFC02213B20FFF7CE
:102C4000E9FC8921A420FFF7E5FC00219620FFF78D
:102C5000E1FC30219720FFF7DDFC20219820FFF7D1
:102C6000D9FC30219920FFF7D5FC84219A20FFF769
:102C7000D1FC29219B20FFF7CDFC03219C20FFF7ED
:102C8000C9FC4C219D20FFF7C5FC3F219E20FFF78A
:102C9000C1FC04217820FFF7BDFC01217920FFF75A
:102CA000B9FCF021C820FFF7B5FC0F217920FFF710
:102CB000B1FC0021C820FFF7ADFC10217920FFF7FF
:102CC000A9FC7E21C820FFF7A5FC0A217920FFF787
:102CD000A1FC8021C820FFF79DFC0B217920FFF784
:102CE00099FC0121C820FFF795FC0C217920FFF702
:102CF00091FC0F21C820FFF78DFC0D217920FFF7F3
:102D000089FC2021C820FFF785FC09217920FFF7E5
:102D100081FC8021C820FFF77DFC02217920FFF78C
:102D200079FCC021C820FFF775FC03217920FFF74B
:102D300071FC4021C820FFF76DFC05217920FFF7C9
:102D400069FC3021C820FFF765FC26217920FFF7B8
:102D500061FC0021BDE810400920FFF75BBC4FF08B
:102D60004070E1EE100A7047000000000000000013
:102D70000102030406070809000000000102030421
:102D80000000000000000000002F0000000007000D
:102D9000070000147F147F1400242A7F2A12006287
:102DA0006408132300364955225000000503000033
:102DB00000001C224100000041221C000014083EBB
:102DC00008140008083E0808000000A06000000881
:102DD00008080808000060600000002010080402D5
:102DE000003E5149453E0000427F40000042615193
:102DF0004946002141454B31001814127F1000272D
:102E000045454539003C4A494930000171090503EF
:102E100000364949493600064949291E0000363620
:102E20000000000056360000000814224100001483
:102E30001414141400004122140800020151090660
:102E400000324959513E007C1211127C007F4949E1
:102E50004936003E41414122007F4141221C007F12
:102E600049494941007F09090901003E4149497A20
:102E7000007F0808087F0000417F4100002040419A
:102E80003F01007F08142241007F40404040007F06
:102E9000020C027F007F0408107F003E4141413E4A
:102EA000007F09090906003E4151215E007F091992
:102EB00029460046494949310001017F0101003F8F
:102EC0004040403F001F2040201F003F4038403F0F
:102ED0000063140814630007087008070061514973
:102EE000454300007F41410000552A552A55000006
:102EF00041417F0000040201020400404040404084
:102F0000000001020400002054545478007F48441B
:102F1000443800384444442000384444487F003852
:102F20005454541800087E0901020018A4A4A47C7B
:102F3000007F080404780000447D40000040808445
:102F40007D00007F102844000000417F4000007C8D
:102F500004180478007C0804047800384444443899
:102F600000FC242424180018242418FC007C0804E5
:102F7000040800485454542000043F444020003CBE
:102F80004040207C001C2040201C003C4030403C45
:102F9000004428102844001CA0A0A07C00446454D5
:102FA0004C44141414141414000000000000000019
:102FB0000000000000000000000000F80000000019
:102FC000000000333000000000100C06100C06005A
:102FD000000000000000000040C07840C0784000C1
:102FE000043F04043F040400007088FC0830000023
:102FF000001820FF211E0000F008F000E01800007B
:1030000000211C031E211E0000F008887000000033
:103010001E2123241927211010160E000000000085
:103020000000000000000000000000E018040200A2
:10303000000000071820400000020418E000000013
:103040000040201807000000404080F08040400011
:103050000202010F01020200000000F00000000067
:103060000101011F0101010000000000000000003B
:1030700080B07000000000000000000000000000B0
:103080000001010101010101000000000000000039
:1030900000303000000000000000000080601804D4
:1030A000006018060100000000E010080810E000B1
:1030B000000F102020100F00001010F8000000007A
:1030C0000020203F202000000070080808887000C1
:1030D0000030282422213000003008888848300041
:1030E0000018202020110E000000C02010F8000061
:1030F00000070424243F240000F8088888080800FA
:103100000019212020110E0000E01088881800000E
:10311000000F112020110E0000380808C8380800E0
:103120000000003F00000000007088080888700060
:10313000001C222121221C0000E010080810E000E1
:103140000000312222110F00000000C0C00000006A
:10315000000000303000000000000080000000008F
:103160000000806000000000000080402010080087
:103170000001020408102000404040404040400050
:10318000040404040404040000081020408000002B
:103190000020100804020100007048080808F00030
:1031A0000000003036010000C030C828E810E00000
:1031B0000718272423140B000000C038E00000008B
:1031C000203C23020227382008F8888888700000F5
:1031D000203F202020110E00C030080808083800C9
:1031E000071820202010080008F808080810E00040
:1031F000203F202020100F0008F88888E8081000E1
:10320000203F20202320180008F88888E8081000B4
:10321000203F200003000000C030080808380000EC
:1032200007182020221E020008F808000008F808ED
:10323000203F210101213F20000808F80808000074
:103240000020203F2020000000000808F8080800A7
:10325000C08080807F00000008F888C0281808001F
:10326000203F20012638200008F808000000000058
:10327000203F20202020300008F8F800F8F808004F
:10328000203F003F003F200008F830C00008F80849
:10329000203F200007183F00E01008080810E00059
:1032A0000F10202020100F0008F808080808F00070
:1032B000203F210101010000E01008080810E00093
:1032C0000F18242438504F0008F888888888700028
:1032D000203F2000030C30200070880808083800C8
:1032E0000038202121221C00180808F808081800BE
:1032F0000000203F2000000008F808000008F8083F
:10330000001F202020201F000878880000C83808EF
:10331000000007380E010000F80800F80008F80067
:10332000033C0700073C0300081868808068180801
:1033300020302C03032C30200838C800C83808007F
:103340000000203F2000000010080808C8380800CE
:103350002038262120201800000000FE0202020072
:103360000000007F40404000000C30C00000000022
:10337000000000010638C00000020202FE0000004A
:10338000004040407F0000000000040202020400F0
:10339000000000000000000000000000000000002D
:1033A0008080808080808080000202040000000015
:1033B000000000000000000000008080808000000D
:1033C0000019242222223F2008F8008080000000FB
:1033D000003F112020110E000000008080800000BE
:1033E000000E112020201100000000808088F800CD
:1033F000000E112020103F200000808080800000FF
:10340000001F222222221300008080F08888881862
:103410000020203F2020000000008080808080006D
:10342000006B94949493600008F800808080000002
:10343000203F210000203F200080989800000000DD
:103440000020203F2020000000000080989800000D
:1034500000C08080807F000008F80000808080002D
:10346000203F24022D302000000808F80000000052
:103470000020203F2020000080808080808080000D
:10348000203F20003F20003F80800080808000009F
:10349000203F210000203F2000008080808000002D
:1034A000001F202020201F0080800080800000005E
:1034B00080FFA12020110E0000000080808080008D
:1034C000000E112020A0FF8080808000808080007E
:1034D00020203F21200001000000808080808000AB
:1034E0000033242424241900008080E08080000020
:1034F0000000001F2020000080800000008080006D
:10350000001F202020103F208080800000808080CD
:1035100000010E300806010080800080008080805D
:103520000F300C030C300F00008080008080800082
:103530000020312E0E3120008080800000808080AD
:1035400080818E701806010000808080808080005D
:103550000021302C2221300000000000807C02027B
:1035600000000000003F40400002027C800000009C
:103570000040403F0000000000000000FF0000008D
:1035800000000000FF00000040221408F40200F8D0
:103590000808FF0808F80000000000000000000014
:1035A0000000000000000000084482413F0020634A
:1035B00021213F21293360000000000000000000AD
:1035C00000000000000000002010E824272424E46C
:1035D00024342C20E0000000000000000000000067
:1035E000000000000000000080601F090909097F39
:1035F000090949897F000000000000000000000068
:10360000000000000000000000007C545556547C6F
:10361000545655547C0000000000000000000000DB
:103620000000000000000000010101FD4545454586
:10363000454545FD010101000000000000000000BB
:10364000000000000000000000000000000000007A
:103650000000000000000000000000F80000000072
:10366000000000333000000000100C06100C0600B3
:10367000000000000000000040C07840C07840001A
:10368000043F04043F040400007088FC083000007C
:10369000001820FF211E0000F008F000E0180000D4
:1036A00000211C031E211E0000F00888700000008D
:1036B0001E2123241927211010160E0000000000DF
:1036C0000000000000000000000000E018040200FC
:1036D000000000071820400000020418E00000006D
:1036E0000040201807000000404080F0804040006B
:1036F0000202010F01020200000000F000000000C1
:103700000101011F01010100000000000000000094
:1037100080B0700000000000000000000000000009
:103720000001010101010101000000000000000092
:10373000003030000000000000000000806018042D
:10374000006018060100000000E010080810E0000A
:10375000000F102020100F00001010F800000000D3
:103760000020203F2020000000700808088870001A
:10377000003028242221300000300888884830009A
:103780000018202020110E000000C02010F80000BA
:1037900000070424243F240000F808888808080053
:1037A0000019212020110E0000E010888818000068
:1037B000000F112020110E0000380808C83808003A
:1037C0000000003F000000000070880808887000BA
:1037D000001C222121221C0000E010080810E0003B
:1037E0000000312222110F00000000C0C0000000C4
:1037F00000000030300000000000008000000000E9
:1038000000008060000000000000804020100800E0
:1038100000010204081020004040404040404000A9
:103820000404040404040400000810204080000084
:103830000020100804020100007048080808F00089
:103840000000003036010000C030C828E810E00059
:103850000718272423140B000000C038E0000000E4
:10386000203C23020227382008F88888887000004E
:10387000203F202020110E00C03008080808380022
:10388000071820202010080008F808080810E00099
:10389000203F202020100F0008F88888E80810003A
:1038A000203F20202320180008F88888E80810000E
:1038B000203F200003000000C03008080838000046
:1038C00007182020221E020008F808000008F80847
:1038D000203F210101213F20000808F808080000CE
:1038E0000020203F2020000000000808F808080001
:1038F000C08080807F00000008F888C02818080079
:10390000203F20012638200008F8080000000000B1
:10391000203F20202020300008F8F800F8F80800A8
:10392000203F003F003F200008F830C00008F808A2
:10393000203F200007183F00E01008080810E000B2
:103940000F10202020100F0008F808080808F000C9
:10395000203F210101010000E01008080810E000EC
:103960000F18242438504F0008F888888888700081
:10397000203F2000030C3020007088080808380021
:103980000038202121221C00180808F80808180017
:103990000000203F2000000008F808000008F80898
:1039A000001F202020201F000878880000C8380849
:1039B000000007380E010000F80800F80008F800C1
:1039C000033C0700073C030008186880806818085B
:1039D00020302C03032C30200838C800C8380800D9
:1039E0000000203F2000000010080808C838080028
:1039F0002038262120201800000000FE02020200CC
:103A00000000007F40404000000C30C0000000007B
:103A1000000000010638C00000020202FE000000A3
:103A2000004040407F000000000004020202040049
:103A30000000000000000000000000000000000086
:103A4000808080808080808000020204000000006E
:103A50000000000000000000000080808080000066
:103A60000019242222223F2008F800808000000054
:103A7000003F112020110E00000000808080000017
:103A8000000E112020201100000000808088F80026
:103A9000000E112020103F20000080808080000058
:103AA000001F222222221300008080F088888818BC
:103AB0000020203F202000000000808080808000C7
:103AC000006B94949493600008F80080808000005C
:103AD000203F210000203F20008098980000000037
:103AE0000020203F20200000000000809898000067
:103AF00000C08080807F000008F800008080800087
:103B0000203F24022D302000000808F800000000AB
:103B10000020203F20200000808080808080800066
:103B2000203F20003F20003F8080008080800000F8
:103B3000203F210000203F20000080808080000086
:103B4000001F202020201F008080008080000000B7
:103B500080FFA12020110E000000008080808000E6
:103B6000000E112020A0FF808080800080808000D7
:103B700020203F2120000100000080808080800004
:103B80000033242424241900008080E08080000079
:103B90000000001F202000008080000000808000C6
:103BA000001F202020103F20808080000080808027
:103BB00000010E30080601008080008000808080B7
:103BC0000F300C030C300F000080800080808000DC
:103BD0000020312E0E312000808080000080808007
:103BE00080818E70180601000080808080808000B7
:103BF0000021302C2221300000000000807C0202D5
:103C000000000000003F404000000000FF000000F6
:103C100000000000FF0000000002027C80000000A5
:103C20000040403F000000000006010102020404C1
:103C30000000000000000000583C000800000020C8
:103C400030000000C4010008883C0008300000205B
:103C5000309D0000E001000801000000100000009D
:103C6000000000000024F400AED580A83FD300403F
:103C7000A1C8DA1281CFD9F1DB40A4A68D14AF0020
:083C800000000000000000003C
:040000050800018965
:00000001FF
